:100000000EC015C014C013C012C011C010C00FC064
:100010000EC00DC00CC00BC00AC009C008C011241E
:100020001FBECFE5D2E0DEBFCDBF83D096C1E8CF03
:10003000CF92DF92EF92FF920F931F93F894E0E03C
:10004000F0E0A0E0B0E031969BF0B299FCCF1196C1
:10005000A3F0B29BFCCFE0E0F0E0A0E0B0E031968E
:100060003BF0B299FCCF119643F0B29BFCCF09C094
:10007000E4E6F0E0A0E0B0E004C0E0E0F0E0A0E002
:10008000B0E07894AF010F2E000C660B770B440F95
:10009000551F661F771F440F551F661F771F8A0164
:1000A0009B01000F111F221F331F000F111F221F62
:1000B000331F400F511F621F731F6A017B01CC0C5D
:1000C000DD1CEE1CFF1CCC0CDD1CEE1CFF1CCB0150
:1000D000BA016C0D7D1D8E1D9F1D9F012A0F3B1FB8
:1000E000032E000C440B550BE6D057FD19C0DA0166
:1000F000C90125363105410551053CF41F910F9189
:10010000FF90EF90DF90CF90089584E690E0A0E01C
:10011000B0E01F910F91FF90EF90DF90CF90089586
:1001200080E090E01F910F91FF90EF90DF90CF90D3
:1001300008959EE088E10FB6F894A89581BD0FBEA2
:1001400091BD81E087BB88BB93E89ABD83BF8FEFE9
:1001500089BD2FEF82E597E0215080409040E1F784
:1001600000C0000086E689BDC4E6D0E0A89560DF47
:10017000449734F486E689BDA8955ADF4497D4F3B2
:1001800057DF813591051CF08FEF89BDF5CFF894CD
:10019000E0E0F0E0A0E0B0E031969BF0B299FCCF57
:1001A0001196A3F0B29BFCCFE0E0F0E0A0E0B0E05D
:1001B00031963BF0B299FCCF119643F0B29BFCCF45
:1001C00009C0E4E6F0E0A0E0B0E004C0E0E0F0E068
:1001D000A0E0B0E07894AF010F2E000C660B770B17
:1001E000440F551F661F771F440F551F661F771F4B
:1001F0008A019B01000F111F221F331F000F111FC7
:10020000221F331F400F511F621F731F6A017B01A2
:10021000CC0CDD1CEE1CFF1CCC0CDD1CEE1CFF1CF2
:10022000CB01BA016C0D7D1D8E1D9F1D9F012A0FF4
:100230003B1F032E000C440B550B3DD057FD25C032
:10024000DA01C901253631054105510524F084E65E
:1002500090E0A0E0B0E09C012C5E3F4FC901829588
:100260009295907F9827807F9827821B930B9C0103
:1002700022953295307F3227207F3227820F931FBD
:10028000BE0106D0862F89BD77CF83E389BD74CFA9
:1002900097FB072E16F4009406D077FD08D027D0E0
:1002A00007FC05D03EF4909581959F4F0895709579
:1002B00061957F4F0895052E97FB16F400940FD09B
:1002C00057FD05D028D007FC02D046F408C0509551
:1002D0004095309521953F4F4F4F5F4F0895909532
:1002E0008095709561957F4F8F4F9F4F0895AA1B02
:1002F000BB1B51E107C0AA1FBB1FA617B70710F011
:10030000A61BB70B881F991F5A95A9F78095909542
:10031000BC01CD010895A1E21A2EAA1BBB1BFD0151
:100320000DC0AA1FBB1FEE1FFF1FA217B307E407D4
:10033000F50720F0A21BB30BE40BF50B661F771F2C
:10034000881F991F1A9469F760957095809590950C
:0E0350009B01AC01BD01CF010895F894FFCFD1
:00000001FF
